:020000040000FA
:0600000002011A022A3F72
:03002B000231D9C6
:030033000231B9DE
:03005300022AB2CC
:03006B0002316DF2
:03007B00023193BC
:100083000228ABE5C754F84401F5C7790122000003
:100093000080FB120086B90003020104E479217891
:1000A30008B800028004F709D8FCE479297802B87B
:1000B30000028004F709D8FCE49002817811790AE0
:1000C3008002F0A3D8FCD9FA781A90014A7A01BACF
:1000D30000028007E493A3F608DAF97A917B0B9088
:1000E300014B789979038015E493A3AD82AE838A9B
:1000F300828B83F0A3AA82AB838D828E83D8E9D9C6
:10010300E775829D7583F9740312012C75829175CD
:100113008300740012012C75D00075813F7518811E
:10012300751902759F00020096C09FF59FE473D076
:100133009F22D083D082C09FE493C0E0740193C018
:10014300E0740293F59F2201FF0000B40000280031
:100153002800283075A000A000A000A0000008001F
:1001630008E001F000100010001000100010001053
:100173000050005000500010001000D00700000095
:100183000000000F0001000500307507001000019A
:100193000081FF00000000FF7D069B068306FF022F
:1001A300020208025000A0000000E803029082014E
:1001B30000007482028882010000E80B028482013D
:1001C3000000B302028882010000E90B028282016F
:1001D3000000C902028882010000EA0B0296820134
:1001E3000000CB02028882010000EB0B029A820816
:1001F3000000CC02028882010000EC0B02AC8201F9
:100203000000ED0BFFFF0100FF20029082010000C0
:100213007A82028882010000520C02BC8200000034
:1002230000000286820300005B03D10CD10CD10CC9
:10023300D10CD10CD10CD10CD10CD10CD10CD10CD3
:10024300D10CD10C650F7D0F5F0F02020202020277
:10025300020202010D000000100102908201000061
:100263007D82028882010000930C02B682010000A5
:100273008207028882010000940C02B4820100000C
:100283008A07028882010000950C02B282010000F5
:10029300A681028882010000960C02B08201000050
:1002A3004681028882010000970C02AE82010000A1
:1002B3003481028882010000980C029E82010000B2
:1002C3002281028882010000990C029C82010000B5
:1002D30010810288820100009A0C02BA8201000098
:1002E300B4810288820100009B0C02988201000005
:1002F3009C0C01E803053F100AFFFFFF0001307566
:1003030003020106000000000000000000000000DE
:1003130000000000000000000000000000000000DA
:10032300FFFF0600800CE8031209546865726D6FC5
:100333006D6574657253656E736F7205125000407C
:10034300060A0002010503020918546865726D6FFD
:100353006D657465722053656E736F720000000FD4
:100363000F0F0F0F0E73010000571400008D14932D
:10037300142002102A1E01FF0290820100007782DE
:10038300028882010000BA0D02A2820000006E0BF7
:100393000286820300006F0B028882010000BB0DFE
:1003A30002A482010000750B028882010000BC0DCB
:1003B30002A682000000760B028682030000770B00
:1003C300028882010000BD0D02A882090000BE0D53
:1003D3000286820300007D0B02AA82010000BF0D8A
:1003E30012013521EC0312013537EC031201356696
:1003F300EC031201359CEC03120135B3EC0312013B
:1004030035CAEC0312013501ED0312013554ED0336
:100413001201356BED0312013582ED031201351A1A
:10042300E70312013531E70312013562E7031201D5
:10043300359DE703120135C7E703120135F1E703E1
:1004430012013508E8031201351FE803120135369E
:10045300E8031201355FE80312013572E803120164
:100463003588E8031201359BE803120135C2E8031E
:10047300120135F18E02120135F58F021201352278
:1004830090021201357890021201359B90021201FD
:1004930035AF9002120135B19002120135D49002AA
:1004A300120135DA91021201351E9302120135E26F
:1004B3009302120135B794021201352895021201F5
:1004C30035B49502120135B795021201353F9602F4
:1004D3001201357A9602120135E19602120135E4D2
:1004E30096021201351B970212013544970212013D
:1004F30035EF9702120135799802120135C8980237
:10050300120135D59802120135D8980212013538F7
:100513009902120135439902120135C2990212015F
:1005230035C59902120135D89902120135DB9902BA
:100533001201356A9A02120135849A021201359426
:100543009A02120135C49A02120135D19A0212019C
:1005530035D49A02120135559B02120135439C0290
:10056300120135F59C021201353EB20312013566C4
:10057300B20312013594B203120135CBB203120157
:100583003529B30312013574B303120135BFB30325
:10059300120135FFB30312013545B403120135735C
:1005A300B40312013530B5031201353AB503120114
:1005B3003547B5031201357AB50312013546B60343
:1005C30012013552B6031201356AB60312013574AE
:1005D300B6031201358DF4031201359BF4031201A6
:1005E30035B3F403120135CBF40312013500800255
:1005F300120135AC80021201352781021201354800
:1006030082021201358482021201352D8302120106
:1006130035148402120135788502120135CF850223
:100623001201355086021201354087021201358DC1
:10063300870212013513880212013545880212011F
:1006430035598A021201359B8A02120135B98A0291
:100653001201353C8B02120135108C02120135D880
:100663008C02120135958F03120135689003120134
:10067300351191031201356491031201351492036C
:10068300120135A092031201358C9303120135BB7D
:100693009303120135CE940312013516950312010B
:1006A30035EB950312013527960312013543960363
:1006B30012013516F803120135D3CB03120135E9C4
:1006C300CB031201350FCC031201352BCD031201DD
:1006D3003535CD031201356ACE0312013562CF03DE
:1006E3001201358EA303120135BEA403120135F1A5
:1006F300A4031201353BA50312013502A70312011E
:1007030035E3AB0112013567AC0112013577AC015A
:100713001201355DAD011201359AAD011201352685
:10072300AE0112013569AE0112013574AE01120139
:10073300355EAF01120135C1AF0112013577B0014A
:100743001201355EB20112013517B401120135F3FE
:10075300B401120135A7B501120135E4B801120144
:100763003592B90112013501BB0112013581BC017A
:1007730012013528BD0112013571BD01120135A9E0
:10078300BD0112013546BE01120135D1BE01120170
:1007930035DDD20112013547D301120135A6D4014B
:1007A300120135B6D401120135E3D4011201353AF1
:1007B300D501120135E3D501120135EAD601120143
:1007C30035B4D70112013514D90112013557D901B6
:1007D300120135FCD90112013549DA011201356FD5
:1007E300DA011201357DDC0112013582DC011201CF
:1007F3003587DE01120135D4DE0112013547DF01F1
:100803001201357ADF011201351CE001120135C5F1
:10081300E001120135FDE00112013500E101120191
:100823003548E10112013588E101120135DFE101AB
:100833001201356FD80312013582D80312013590A6
:10084300D803120135D8D803120135EED8031201AB
:100853003535D90312013549DA03120135D6DA03E6
:1008630012013521DB031201353F4F001201354BD5
:100873004F00120135864F00120135CB4F00120194
:10088300358B50001201351151001201353D5100D5
:10089300120135765100120135B453001201359817
:1008A30055001201357E5700120135C1580012015F
:1008B300350F5B00120135215C001201356C5D00C0
:1008C3001201357C5E00120135995E00120135D4A8
:1008D3005E00120135F65E00120135595F00120108
:1008E300351A6400120135AF64001201350065004A
:1008F300120135276500120135796500120135971C
:100903006500120135F16500120135F06600120130
:1009130035746700120135FBB60312013505B703C1
:1009230012013548B70312013563B703120135F3DA
:10093300B7031201351BB80312013558B80312016E
:10094300358FB803120135B8B8031201352DB90339
:1009530012013542B90312013557B9031201358823
:10096300B9031201359CB903120135C1B903120150
:1009730035FBB90312013527BA03120135AABA03AD
:10098300120135F3BA031201351DBB0312013548B9
:10099300BB031201358AF2031201359CD402120102
:1009A30035CAD40212013518D602120135F8D6021F
:1009B30012013517D70212013594D702120135D728
:1009C300D7021201352DD902120135EED9021201D7
:1009D3003575DC0212013516DD021201350CDE021B
:1009E30012013509DF0212013563E002120135EE0F
:1009F300E0021201359AED0312013503EE031201F1
:100A03003557EE031201357EEE03120135AFEE03C7
:100A130012013570BB03120135DDBB03120135240E
:100A2300BC031201353CBD0312013538BE0312016C
:100A3300351BBF0312013587F602120135C9F602D1
:100A43001201359BF70212013574F8021201356E5B
:100A5300F90212013550FA02120135B9FA021201F4
:100A6300356FFB02120135E3FB021201354FFC0225
:100A730012013578FC02120135F2FC021201358BAA
:100A8300FD02120135F0FD0212013505FE021201CD
:100A9300354BFE0212013564FE02120135C9FE0216
:100AA300120135CCFE0212013576D5031201359EB3
:100AB300D503120135DCD5031201359AD603120191
:100AC3003501D7031201351DD70312013545D7036D
:100AD30012013575D70312013584D703120135018D
:100AE300D80312013527D803120135CCE2011201D4
:100AF30035AAE401120135DCE60112013518E701DC
:100B030012013545E7011201352FE8011201357A4B
:100B1300E801120135C5E801120135D7E8011201D8
:100B23003517E9011201354CE9011201359AE90142
:100B3300120135C9E901120135ECE9011201353918
:100B4300EA01120135BEEA01120135D8EC011201A6
:100B53003517EF0112013558EF01120135FAF00193
:100B63001201353BF101120135AEF1011201358756
:100B7300C70212013585C8021201351ECF021201C8
:100B8300353FD1021201350AD30212013572D40264
:100B9300120135DB67001201358A6800120135B78F
:100BA3006800120135FD68001201353D6A0012012B
:100BB30035D36B001201354D6C00120135686C00A2
:100BC300120135E36C001201353D6E001201359DB3
:100BD3006F00120135A37000120135047200120177
:100BE300351D72001201357B7200120135697300E5
:100BF3001201359C73001201350C74001201358605
:100C03007400120135D074001201359A7500120177
:100C1300356F76001201354E7700120135D9770012
:100C2300120135477800120135BB7800120135E611
:100C33007800120135A579001201350A7B001201F3
:100C430035277B00120135467B00120135377C00C6
:100C53001201355C7C00120135867C0012013501DE
:100C63007D001201355B7D00120135C47E00120147
:100C730035727F00120135B37F0012013504F20192
:100C830012013552F2011201355EF2011201353CB7
:100C9300F3011201356DF3011201359EF3011201C7
:100CA300351EF40112013556F401120135A8F40181
:100CB300120135E5F40112013502F701120135285D
:100CC300F90112013513FB01120135FDFC0112017B
:100CD30035F6FF01120135D0970112013500980155
:100CE300120135D99E011201355EA0011201355B57
:100CF300A60112013543A70112013580A701120194
:100D030035A3A701120135D4A701120135DDA701CF
:100D1300120135E7A701120135D5A801120135CB20
:100D2300A901120135C18201120135C086011201E8
:100D330035C68601120135018E011201351A930160
:100D430012013505C8031201359BC803120135B1E1
:100D5300C80312013527C9031201359BC9031201C8
:100D630035D9C9031201354DCA03120135C6CA0369
:100D7300120135CFCA03120135DBCA03120135F064
:100D8300CA031201352ECB0312013544CB031201E2
:100D930035A3CB03120135DDBF03120135EABF03CF
:100DA30012013504C00312013543C003120135811A
:100DB300C003120135E6C003120135FBC003120163
:100DC3003506C10312013513C1031201352AC103CC
:100DD30012013538C10312013543C1031201354FE6
:100DE300C1031201355EC10312013569C10312014A
:100DF300358CC10312013533C20312013543C203DB
:100E03001201355DC2031201357AC2031201359610
:100E1300C203120135BBC203120135C6C20312015C
:100E230035DBC203120135EFC20312013550C30390
:100E330012013556C3031201355CC3031201356237
:100E4300C3031201357AC303120135ADC303120183
:100E530035D7AB021201355BAC021201350AAD0284
:100E630012013569AE021201358AB00212013576DC
:100E7300B102120135ABB102120135CDB10212013B
:100E8300357CB20212013574B4021201359DB402ED
:100E93001201352FB50212013561B5021201356E0B
:100EA300B502120135C5B502120135EBB5021201C7
:100EB3003558B8021201355BB902120135B3B902D4
:100EC300120135669D02120135709E0212013557DB
:100ED3009F02120135619F02120135839F021201A5
:100EE300358F9F0212013528A10212013557A10245
:100EF30012013573A202120135CCA202120135325E
:100F0300A40212013511A5021201356DA5021201C9
:100F130035DAA50212013515A60212013554A602CF
:100F23001201350DA90212013527A902120135B3A9
:100F3300A902120135C1A9021201351AAA0212012E
:100F43003528AA021201359BAA02120135FFAA0213
:100F530012013549AB021201356FE10212013591DD
:100F6300E102120135B7E302120135CCE6021201A8
:100F730035E4E70212013597E80212013579E902F7
:100F8300120135D4E803120135F9E8031201356B78
:100F9300E9031201351B880312013524880312016A
:100FA300352D8803120135048903120135B58A03EF
:100FB300120135EB8A03120135258B031201355BD0
:100FC3008B03120135958B03120135C98B03120173
:100FD30035F58B031201353E8C03120135788C03F2
:100FE300120135C18C03120135198D031201354EDF
:100FF3008D03120135A98D03120135E38D0312010F
:1010030035348E031201356A8E03120135A48E0323
:10101300120135D28E03120135F58E0312013530DC
:10102300F6031201355CF603120135B7F60312011C
:1010330035C1F603120135D1F603120135B5A80304
:10104300120135DAA8031201359AF80312013508A3
:101053003200120135193500120135AF3600120185
:10106300355B3700120135FE370012013596380023
:10107300120135C53800120135323900120135DF4E
:101083003D00120135733E00120135AF3F001201DE
:1010930035174000120135CB400012013581430062
:1010A300120135BB4300120135254400120135837B
:1010B3004400120135E144001201353E450012019E
:1010C300352D4600120135734600120135B846002E
:1010D300120135DB46001201352248001201353674
:1010E30048001201353F49001201357E49001201C3
:1010F30035AA4900120135FD49001201351E4A0087
:101103001201355C4A001201358A4C00120135CBBD
:101113004C00120135664D00120135D24D0012010B
:10112300350B4F00120135E37F001201354BDB0312
:1011330012013516DE03120135E1FF0212013530CB
:10114300F00312013540F00312013557F003120189
:10115300355CF10312013573D20312013519D30340
:101163001201355BD50312013579EA03120135C843
:10117300EA03120135F4EA0312013586EB03120187
:101183003502EC03120135F5EE0312013516EF03B8
:1011930012013574EF0312013582EF03120135EDAD
:1011A300EF031201351FF00312013522F003120180
:1011B30035F47F0012013537FA0312013549FA037A
:1011C3001201354CFA03120135F87F001201352460
:1011D300DE0312013514E00312013580E00312012E
:1011E30035CBE0031201351DFA0312013524FA034E
:1011F3001201357EF703120135F7F7031201356249
:10120300F10312013593F103120135BDF10312010C
:1012130035DDF1031201353BF20312013500800382
:10122300120135158003120135718003120135DC7B
:1012330080031201352481031201359681031201C3
:1012430035C08103120135CE81031201353082038B
:101253001201356E8203120135898203120135248E
:101263008303120135CB83031201354C840312012E
:10127300358384031201350C85031201356185031F
:10128300120135BE8503120135D08503120135F6EF
:101293008503120135FF85031201354F87031201C0
:1012A30035E7870312013560E303120135C5E30314
:1012B30012013580E403120135FEE4031201352ADD
:1012C300C4031201355DC4031201355FC503120166
:1012D3003583C6031201353EC7031201356CCF03B4
:1012E3001201354DD003120135A9D003120135C3C4
:1012F300D003120135E3D003120135CEE00312010E
:101303003513E10312013557E1031201351EE303DF
:1013130012013564F5031201357FF5031201358F90
:10132300F503120135E6F5031201359DEC021201B6
:101333003579ED02120135BCED02120135F6ED02ED
:1013430012013564EE02120135BEEE021201352E92
:10135300EF02120135FFEF02120135EFF002120125
:101363003566F10212013503F30212013590F302DF
:1013730012013504F40212013582F4021201359987
:10138300F402120135C0F5021201351BF6021201F7
:1013930035DBF603120135829D031201359F9D0350
:1013A300120135A19E03120135ED9E031201350D85
:1013B3009F031201355E9F03120135C99F0312017A
:1013C300350DA0031201356FA0031201350DA303E0
:1013D300120135AEBF011201354BC4011201353C78
:1013E300C70112013565C7011201358EC70112010C
:1013F300353CC80112013521CA011201355BCB010D
:1014030012013594D001120135CDD00112013511ED
:10141300D1011201351DD201120135F0FE02120174
:101423003502FF0212013501BA021201355BBC021B
:1014330012013548BF0212013580BF021201350780
:10144300C00212013577C002120135C0C002120179
:10145300355DC1021201357AC10212013587C2021C
:10146300120135ECC2021201356AC302120135EBD7
:10147300C302120135F5C40212013549C502120136
:1014830035DFC50212013554C60212013582C60288
:10149300120135ABC60212013555C702120135B828
:1014A3009603120135219703120135349703120174
:1014B30035849703120135D697031201355A9803E1
:1014C300120135A89803120135FD99031201352F36
:1014D3009D03120135A3F303120135A6F303120191
:1014E3003556E503120135C4E6031201357FAD031A
:1014F300120135A0AD03120135ECAD031201351C09
:10150300F903120135F1F903120135D8FF01E06641
:10151300701008A3E066700A08A3E066700408A3CD
:10152300E06622C3E7960809E7960809E7960809E3
:10153300E79622C3E09608A3E09608A3E09608A3E3
:10154300E09622C008C3E096F50808A3E096420897
:1015530008A3E096420808A3E09645087001D3D09B
:101563000822080808E630E711121D3312157D081A
:101573000808C64480C618181822181818E9799E56
:10158300C608CAC608CBC608CCC6C370207996CA9B
:10159300CBCC7019798ECBCC70137986CC700EF9C5
:1015A300802ACA33CACB33CBCC33CC331930E7F2DE
:1015B300CCCBCA3350147004EA30E00DE4CA3ACA03
:1015C300CB3BCBCC3CCC500209C3E913C6CC18238C
:1015D30013C6CB18C6CA18C6F92212161D20F0145A
:1015E30030E72B74FFFCFBFA747F8022E4FCFBFAE8
:1015F3007480801AB48008BC00F2BB00EF800F50E7
:10160300EBF9E4C39AFAE49BFBE49CFCE499C6CCB3
:1016130018C6CB18C6CA18C6F922E4C9C608CAC672
:1016230008CBC6D3330308CCC63392F0C3947F40B0
:101633002E94184019C9B90704CACBCC225025C32C
:1016430009CA33CACB33CBCC33CC33D9F422F460BD
:101653000DC9CCC313CB13CBCA13CAD9F6CC22E41E
:10166300FCFBFA2214FCFBFA22E62618461846185D
:101673004622E72719471947194722181818E60879
:1016830046087009E626087005E633F42208221995
:101693001919E70947097009E727097005E733F4C2
:1016A300220922E6084608C3134608336002E633DC
:1016B300F422E7094709C3134709336002E733F408
:1016C30022001216A6604F1216B56012E754806608
:1016D300F612167E7011121675703B090909F4F69D
:1016E30018F618F618F622121692701512166C08D0
:1016F300080860EAE6447FF618768018E4F618F6E0
:101703002212166C60161216757012E4F608F608AB
:10171300F608E65480F609090918181822EAC0E009
:10172300EBC0E0ECC0E0EDC0E0E687F0A4FBACF07A
:1017330008E687F0A42CFCE435F0FA1809E687F0F4
:10174300A42C4B60027401CA35F0FCE433FB09E6B8
:1017530087F0D2F7A42CCB35F0FC1908E687F0A468
:101763002BCC35F0FBE433FD0819E687F0D2E7A470
:101773002C4ACB35F0CD3400FC09E687F0D2E7A440
:101783002DCC35F0FDE433FA0918E687F0D2F7A43F
:101793002CCD35F0CA3400FC08E687F0D2E7D2F747
:1017A300A42ACC35F07A7E20E70B0ACB33CBCD339A
:1017B300CDCC33CC33CB3350147004ED30E00ED2A8
:1017C300F1E4CD3DCDCC3CCC3B5005DA05C2F1EB89
:1017D300547FC63308E63392F0FBE73309E733C39C
:1017E3009A502D2B70190C0D4C4D70151806E608E8
:1017F300C333700D20F10AA2F013F6E418800B40F6
:1018030024E4F630F002768018F618F618F68024F1
:10181300D33B14501074FFA2F013F6187680E4182B
:10182300F618F6800FA2F013F618E63303F618EC59
:10183300F618EDF6D0E0FDD0E0FCD0E0FBD0E0FA06
:10184300221216A6601D1216B57005191919801AF1
:1018530012167E701F121692C37003E667331919AE
:101863001940071818182208080874FFF618F61804
:10187300F618F6221216926017121675702192F05E
:1018830012166C7019501720F0140808080909097A
:10189300E7F61819E7F61819E7F61819E7F622120A
:1018A300166C60E6E869701F0808E62480F608E411
:1018B30036F618547FB47F0CE654806007F6E418BC
:1018C300F618F622181822E9C6CC08C6CD08C6CEEB
:1018D30008C6CFC0E0E8C0E0EAC0E0EBC0E009E939
:1018E300F809E7FA09E7FBE6F918E6F8C3EC98ED1F
:1018F30099EE9AEBC2E7F5F0EFC2E795F0500E6070
:101903000CEBCFFBEACEFAE9CDF9E8CCF8EAA2E793
:10191300D2E7FAEB33FB13F5F0EEA2E7D2E7FEEFE3
:1019230033FFC5F013A2E730E601B313C5F0C3C01C
:10193300E0C0F07F00C39BFB605E9418600F401D06
:1019430014601AD0E023F9D0E0F8021A258AF0E9EE
:10195300486003D2F0E4AFF0FAF9F8803BEB30E4EF
:101963000D89F0EA6003D2F0E4AFF0F9CAF8EB3086
:10197300E30D88F0EF6002D2F0AFF0E4CAC9F8EBF0
:1019830054076014FBC3EA13FAE913F9E813F8EFF9
:10199300135002D2E0FFDBEDD0E0C0E030E739C303
:1019A300E49FFFF5F0EC98FC42F0ED99FD42F0EE78
:1019B3009AFE42F0D0E0F9D0E0F8E5F0607AE9234E
:1019C300F9EE20E742D8028067C3EF33FFEC33FC24
:1019D300ED33FDEE33FE80EAEC28FCED39FDEE3A03
:1019E300FED0E023F9D0E0F84002801BC3EE13FEE3
:1019F300ED13FDEC13FCEF135002D2E0FF08B80027
:101A0300067F7F74FF802EEF3350178CF020F00297
:101A130060100CBC000C0DBD00080EBE000408E8ED
:101A230060DFE933E813FFEE2313FE4F4D4C8008CC
:101A3300E95480FFE4FEFDFCEE33EF33F47004FC65
:101A4300FD7E80D0E0FBD0E0FAD0E0F8D0E0CFC656
:101A530018CEC618CDC618CCC6F9221216A6700425
:101A6300181818221216B5700D74FFF61819F61807
:101A730019F61819F622E7548066F612166C700FE1
:101A830012167570F014F608F608F608F680D112EF
:101A93001675700CF608F608768008E6447F80EC2D
:101AA300121695700C12168160BFE65480F6E4801E
:101AB300BB121681700519191980A5E869700C7697
:101AC3003F18768018F618F6E8F922E6CDC0E0183C
:101AD300ECC0E0E633CD33CDD313F6E719FCE719B9
:101AE3001933CC33C3947F400ECD9D502408E65464
:101AF30080F6E418F6800FF4043D14501408E6440D
:101B03007FF6187680E418F618F6D0E0FCD0E0FDF6
:101B130022CCD313CCFD18E4C6CBC0E018E4C6CA6C
:101B2300C0E00808ED08C633E613F618E433C675BB
:101B3300F003C3CA97CA09CB97CB199C40047D080D
:101B4300802EBD0003021C0716B6FF050606081605
:101B530018C3CA33CACB33CB33CA27CA09CB37CB53
:101B6300193CC37D08803E187D0820E75CC633C658
:101B7300CA33CACB33CB33DDF1D5F0EB30E77BCAC5
:101B830097CA09CB974ACB199C406F4B7025E62027
:101B9300E0218066187D08C3CA97CA09CB97CB1981
:101BA3009CD3C633C6CA33CACB33CB3350C9DDE764
:101BB300D5F0E1D3E4C636C608C636C608C636C66F
:101BC30008C636C61818188031C3CA97CA09CB97F6
:101BD300CB199CB34097C633C6CA33CACB33CB3376
:101BE300DD34D5F02EC6A2E0C640C8CA27CA09CB49
:101BF30037194A70BECB3CB480B90808E63308E60F
:101C030033601F181818D0E0FAD0E0FBD0E0FCD006
:101C1300E0FD22187D08CA27CA09CB37CB193CD36C
:101C2300808013F618E4B67F11F618B6FF0EF61887
:101C3300C60470D20808768080CAF618F618F680B3
:101C4300C5080808EAC0E0EBC0E086F0E7A4FA188C
:101C53000986F0E7A42AFA180986F0E7A42AFA18F5
:101C63000986F0E7A42AFA1986F0E7A4FBE5F02A2F
:101C7300FA190886F0E7A42BFBE5F03AFA1908866F
:101C8300F0E7A42BFBE5F03AFA18180986F0E7A46D
:101C9300C5F02BFBE43AFA1908E7C5F0C6A426F60B
:101CA300E5F03BFBE43AFA1886F0E7A4F6E5F00822
:101CB30026F6E43B08F6E43A08F6D0E0FBD0E0FA77
:101CC30022E4CFC0E0E4CEC0E0E4CDC0E0E4CCC089
:101CD300E075F020E626F608E633F608E633F60864
:101CE300E633F6181818EC33FCED33FDEE33FEEF54
:101CF30033FFC3EC9709ED9709EE9709EF9719198D
:101D030019400FFFEC97FC09ED97FD09EE97FE19BB
:101D13001906D5F0BFECF709EDF709EEF709EFF770
:101D2300191919D0E0FCD0E0FDD0E0FED0E0FF228D
:101D3300181818E4C396F608E496F608E496F6082D
:101D4300E496F6226016080808C6C313C618C6131D
:101D5300C618C613C618C613C6D5E0EA227009080A
:101D63000808226016181818C6C333C608C633C637
:101D730008C633C608C633C6D5E0EA22E627F60806
:101D830009E637F60809E637F60809E637F622E0EA
:101D930026F608A3E036F608A3E036F608A3E036F5
:101DA300F622E026F008A3E036F008A3E036F008B8
:101DB300A3E036F022C3E697F60809E697F608098A
:101DC300E697F60809E697F622C3E096F008A3E043
:101DD30096F008A3E096F008A3E096F022E657F603
:101DE3000809E657F60809E657F60809E657F62202
:101DF300E056F608A3E056F608A3E056F608A3E07B
:101E030056F622E056F008A3E056F008A3E056F099
:101E130008A3E056F022E0F608A3E0F608A3E0F6F4
:101E230008A3E0F622E6F008A3E6F008A3E6F0082C
:101E3300A3E6F022E0FAA3E0FBA3E0FCA3E0FD228B
:101E4300EAF0A3EBF0A3ECF0A3EDF022E0F8A3E0BB
:101E5300F9A3E0FAA3E0FB22E8F0A3E9F0A3EAF098
:101E6300A3EBF022CAC0E0E6F0A308DAFAD0E0FA66
:101E730022CAC0E0E0A3C582CCC582C583CDC58399
:101E8300F0A3C582CCC582C583CDC583DAE6D0E095
:101E9300CA22C3E498F8E499F9121ED68026C3E453
:101EA3009AFAE49BFBE920E7E9121ED6E498F8E4EA
:101EB30099F922C3E498F8E499F9121ED6E498F844
:101EC300E499F9C3E49AFAE49BFB22EB20E7CFE918
:101ED30020E7E0B90010BB0008E88AF084F8AAF014
:101EE30022E4FBC8FA22EB70227B10C833C8C93343
:101EF300C9335007C39AC3DBF280069A50012ADB29
:101F0300EAC833F4C8C933F4C9FA2275F008E4C83F
:101F130033C8C933C933C99AC99B5004C92AC93BB9
:101F2300D5F0ECFBC833F4C8E4C9FA22600D08C647
:101F3300A2E713C618C613C6D5E0F322600C08C681
:101F4300C313C618C613C6D5E0F422700422600D6D
:101F530018C6C333C608C633C6D5E0F418222518FD
:101F630010AF08F518400C15198008F51840021534
:101F730019D2AF2200C0D0251810AF08F518500CA5
:101F830005198008F51850020519D2AFD0D02225C3
:101F930018F58210AF08F518400C15198008F518CC
:101FA30040021519D2AF851983222518F582E4352D
:101FB30019F583222518F8E43519F9222518FAE4CE
:101FC3003519FB222518FCE43519FD22E473251885
:101FD300C582C0E0E51934FFC583C0E0E518C395A9
:101FE3008224F810AF0885831985821880088583B9
:101FF30019858218D2AFCEF0A3E520F0A37808E6C6
:1020030008F0A3DEFAEFF0A3E58124FAF8E608F07E
:10201300A3E608F0A3E608F0A30808E608F0A3E6A1
:1020230008F0A315811581D0E0FED0E0F8158115E5
:10203300811581E8C0E0EEC0E0222518C582C0E02A
:10204300E51934FFC583C0E0E518C3958224F91070
:10205300AF088583198582188008858319858218BE
:10206300D2AFCEF0A3E520F0A37808E608F0A3DE14
:10207300FAEFF0A3E58124FBF8E608F0A3E608F005
:10208300A30808E608F0A3E608F0A315811581D09C
:10209300E0FED0E0F815811581E8C0E0EEC0E02253
:1020A300851983851882E0A3FEE0A3F5207808E074
:1020B300A3F608DFFAE0A3FFE0A3C0E0E0A3C0E0DB
:1020C300E0A3C0E0E0A3C0E0E0A3C0E010AF088558
:1020D30082188583198008858218858319D2AFD029
:1020E30083D082020132851983851882E0A3FEE042
:1020F300A3F5207808E0A3F608DFFAE0A3FFE0A346
:10210300C0E0E0A3C0E0E0A3C0E0E0A3C0E010AF04
:10211300088582188583198008858218858319D2DA
:10212300AFD083D08222C0D02518C582C0E0E51984
:1021330034FFC583C0E0E518C3958224F310AF08CC
:102143008583198582188008858319858218D2AF03
:10215300C8F0A3E9F0A3EAF0A3EBF0A37908E70939
:10216300F0A3D8FAECF0A3EDF0A3EEF0A3EFF0A305
:10217300D0E0F0A3D0E0F0A3D0E0F0A3E520F0A3FB
:10218300E5F0F0A322851983851882E0C0E0A3E07F
:10219300F9A3E0FAA3E0FBA37808E0F608A3DFFACB
:1021A300E0FCA3E0FDA3E0FEA3E0FFA3E0C0E0A307
:1021B300E0C0E0A3E0F5D0A3E0F520A3E0A3F5F0B1
:1021C30010AF088583198582188008858319858255
:1021D30018D2AFD082D083D0E0F8D0E0327404803C
:1021E30006740280027401C0E0F404121F92D0E06E
:1021F300121E67227404800474028000CCC0E0EDD8
:10220300C0E0E518C39CCCAD1950011D10AF068C7E
:10221300188D1980068C188D19D2AF121E74D0E058
:10222300FDD0E0FC22D083D082E9C0E0E493A3C3D5
:1022330086F0C5F095F0F908E493A386F0C5F09510
:10224300F0700BE493A3C3994005E9048002A3E46F
:1022530075F002A42582F582E5F03583F583D0E09D
:10226300F9E493A3C0E0E493C0E022D083D082ECEE
:10227300C0E0EDC0E0E493A3FCE493A3FDED4C6068
:102283000D1222BAEC24FFFCED34FFFD80EFE49342
:10229300A3FCE493A3FDED4C600D1222F9EC24FFA3
:1022A300FCED34FFFD80EFD0E0FDD0E0FCE493A330
:1022B300C0E0E493C0E022C0E0C3E4939608740155
:1022C300939618400FE49366700808740193661898
:1022D30070007019A3A3C3E493960874019396182E
:1022E300A3A3400DD0E0D0E0D0E00222AAA3A3A391
:1022F300A3A3A3D0E022C0E0C0F088F0E49366700B
:10230300080874019366187000A8F0A3A3700BD09B
:10231300F0D0E0D0E0D0E00222AAA3A3D0F0D0E036
:102323002274F512203DEAFEEBFFEE2434F8EF347D
:1023330000F988088909EE2435F582EF3400F58326
:10234300E0F8EE2437F582EF3400F583E0F50AEC8C
:10235300850AF0A4FCAAF0850AF0EDA42AFDE82C76
:10236300F8E43DF97A257B00121ED6EA85088285BA
:102373000983F0F8740758F97401B900028004C3A3
:1023830033D9FCFAE8131313541FF8EE28F8EF348B
:1023930000F9E8245DF582E93400F583E05A60082A
:1023A300EE2434F582EF802CEE2434F582EF3400F2
:1023B300F583E0C0E0EE2436F582EF3400F583E0E8
:1023C300F5F0D0E084A8F0EE28F8EF3400F9E82423
:1023D30038F582E93400F583E0F97F040220E974DB
:1023E300F512203DEAFEEBFFEE2434F582EF3400D4
:1023F300F583E0C0E0EE2435F582EF3400F583D0B9
:10240300E0F08E828F83A3A3A3A3A3A3A3C082C060
:10241300838E828F83A3A3A3A3A3E0F8A3E0F9D0C1
:1024230083D082E0C398F508A3E099F509EE247FF1
:10243300F582EF3400F583E064017069EE2480F5E2
:1024430082EF3400F583E0F8A3E0F98E828F83A353
:10245300A3A3A3A3A3A3E0FCA3E0FD8E828F83A386
:10246300A3A3A3A3E0FAA3E0FBC3EA9CEB9D501054
:10247300C3EC98ED99402EC3EA98EB995027800E50
:10248300C3EA98EB994007C3EC98ED9940177C1E7B
:102493007D05EEFAEFFB120C2FEE247FF582EF346D
:1024A30000F583E4F0EE2434F8EF3400F9E8FCE9B6
:1024B300FDEE2435F582EF3400F583E0F8EE2437A2
:1024C300F582EF3400F583E0F50AE508850AF0A408
:1024D300F508AAF0850AF0E509A42AF509E8250814
:1024E300F8E43509F97A257B00121ED6EA8C828D31
:1024F30083F0F8740758F97401B900028004C333F8
:10250300D9FCFAE8131313541FF8EE28F8EF34003C
:10251300F9E8245DF582E93400F583E05A6008EEBA
:102523002434F582EF802CEE2434F582EF3400F569
:1025330083E0C0E0EE2436F582EF3400F583E0F566
:10254300F0D0E084A8F0EE28F8EF3400F9E824385E
:10255300F582E93400F583E0F912315F0223DDC02F
:1025630082C083851882851983E0F8A3E0F9C3EA62
:102573009CEB9D5010C3EC98ED99401BC3EA98EB7C
:10258300995014800EC3EA98EB994007C3EC98ED79
:10259300994004790180027900D083D08222EAC372
:1025A3009CFAEB9DFB2274EF12203D9003E4E06460
:1025B300086005E06407702A9061C8E06024900415
:1025C30012E0F4601DE0F875F003A4C8AAF02AF93C
:1025D300741428FE740439FF8E828F83A3A3A3E0AF
:1025E30070030226D9906060E0C0E0EE2468F582B3
:1025F300EF3400F583D0E0F0750C87750D05750891
:1026030000750900E5D914F50AE5D95403F50E6000
:10261300177403650E605CE50A6010EE2467F582AB
:10262300EF3400F583E070030226BE900582E06478
:1026330001602AEE2482F582EF3400F583E0600422
:10264300780480027800850A08E508C398FA95E0C3
:10265300FB120AFD8A088B09EA45097005120E333D
:102663008074EE2482F582EF3400F583E070048AEF
:102673000C8B0DE50A6012850C82850D83F50BE545
:10268300D9F0A3150BE50B70F6EE2482F582EF3437
:1026930000F583E0604474FC250AF50A780C1221E6
:1026A300E4AC0AA90EEEFAEFFB120CCB7402121F74
:1026B30077E97026AA08AB091212AD793D8E828F95
:1026C30083A3A3A3A3E0FA7B001209D1EEFAEFFBE5
:1026D300120C47120CDD790080747403650E60568A
:1026E300850A1075110078101221E4AC0CAD0DAA07
:1026F30008AB09120CA77402121F77EE2468F58247
:10270300EF3400F583E064807004747F8001E0F5AA
:102713000C780C1221E8E50EF50C780C1221E8A9CF
:102723000AAC08AD09900412E0FA7B001209957413
:1027330002121F7780139003E4E06408600BAC0C73
:10274300AD0DEEFAEFFB120D37120E3F79017F0A42
:102753000220E974F512203D74FC121F61EAFEEBBE
:10276300FF8908A2AFE433F509C2AF806AEE2463A0
:10277300F8EF3400F97A007B00A2AFE433F50AC224
:10278300AF88828983E0FCA3E0FDEC4D603A888248
:102793008983E0FAA3E0FB8A828B83E0FCA3E0FD5C
:1027A30088828983ECF0A3EDF08A828B83E4F0A323
:1027B300F088828983E0FCA3E0FDEC4D700A8882F7
:1027C3008983A3A3E4F0A3F0E50AA2E092AF121277
:1027D300AD900525E004F0EE2463F582EF3400F5B7
:1027E30083E0F8A3E0F9E849603DEE2463F582EF66
:1027F3003400F583E02402FAA3E03400FBEA240268
:10280300F50AEB3400F50B780A1221E48A828B83F4
:10281300E0FCA3E0F9EEFAEFFB120C6B7402121F5B
:1028230077E97003022770900525E0606390052621
:10283300E0F8900525E0C398500C740265087050C9
:10284300900527E0604A8E828F83A3A3A3A3E0852C
:102853001882851983F0A3E4F0900525E0F874024B
:10286300121FADE8F0A3E4F0900525E0F8900524ED
:10287300E028F07402121FADAC82AD838518828507
:102883001983AA82AB8379011209A1900525E4F08B
:10289300E509A2E092AF7404121F770223DD000062
:1028A300008521878522C622C0E0C0D0E8C0E0E9C8
:1028B300C0E0EAC0E0EBC0E0ECC0E0EDC0E0EEC099
:1028C300E0C008C009C00AC00BC082C083C0F0A228
:1028D300AFE433FEC2AF759B00906182E0A2E0508B
:1028E30012E591A2E0500C7591FE7401652170030D
:1028F3001225A9E0A2E55051E591A2E5504B75914F
:10290300DF9003E4E064076005E06408702374016A
:10291300652170357901900412E0FA75F003A4CAB9
:10292300A8F028FB74142AFA74043BFB1227568080
:1029330018E0640D7013900406E004F0642870023C
:10294300E4F07A00E0F9120E45906182E0A2E640DD
:10295300030229F2E591A2E640030229F27591BF31
:102963009003E4E064057008120D6D120D79800385
:10297300120D73752100120DD3E99003E5F0790070
:10298300120DC7120BA57A017B009003E3E0F91245
:102993001277907803E064427055900586E014F056
:1029A300704DC2AF1229AA00782AD0E0F618D0E001
:1029B300F6E59F540770057509FF800375097FC409
:1029C300C0E07829E6F50808E65509F509740B789F
:1029D30008121F3FD0E02508F8906270E0A2E7409C
:1029E300F8E8C333906272F0906270E0D2E0F09046
:1029F3006181E0A2E35009E5E9A2E3500375E9F739
:102A0300A3E0A2E75009E591A2E7500375917FEE99
:102A1300A2E092AFD0F0D083D082D00BD00AD009FD
:102A2300D008D0E0FED0E0FDD0E0FCD0E0FBD0E069
:102A3300FAD0E0F9D0E0F8D0D0D0E032C0E0C0D096
:102A4300C082C083906183E0A2E05009E5BFA2E0A9
:102A5300500375BFFEE0A2E15009E5BFA2E15003B8
:102A630075BFFDE0A2E25009E5BFA2E2500375BFC6
:102A7300FBE0A2E35009E5BFA2E3500375BFF7E013
:102A8300A2E45009E5BFA2E4500375BFEFE0A2E55D
:102A93005009E5BFA2E5500375BFDFE0A2E6500988
:102AA300E5BFA2E6500375BFBFD083D0828088C044
:102AB300E0C0D0E8C0E0E9C0E0EAC0E0EBC0E0EC91
:102AC300C0E0EDC0E0C0F0E5A7A2E6500FE5A1A28B
:102AD300E6500953A7BF75A1BF122B17E5A7A2E5BF
:102AE300500CE5A1A2E5500653A7DF75A1DFE5A7CA
:102AF300A2E15009E5A1A2E1500375A1FDE5A7A25A
:102B0300E2500CE5A1A2E2500653A7FB75A1FBD04E
:102B1300F0022A2874F812203D7521019003E4E0A5
:102B230064067015120CFB8A828B83A3A3A3A3A351
:102B3300A3E0FAA3E0FB120D5BA2AFE433FED2AF36
:102B43009003EAE0640170187A207B009003E3E0CD
:102B5300F91213BB7A207B009003E3E0F912127D94
:102B6300906182E0D2E6F0900583E0602185C62281
:102B730080169003E9E064017008E5C654F8440543
:102B8300F5C653BEFC1228A47401652160E4EEA2CD
:102B9300E092AF7F010220E9008E238F24858228F3
:102BA300858327851882851983E0CEA3E0CF852806
:102BB30082852783EBC9EAC8EDCBECCA75F010C355
:102BC300E833C8E933C9EA33CAEB33CBC3EA9EF52A
:102BD30026EB9FF525B35004AB25AA26EC33CCEDA9
:102BE30033CDD5F0DAAE23AF242274E912203D743D
:102BF300F8121F61851882851983ECF0A3EDF08A22
:102C0300088B099003E4E024F7C394055006750884
:102C130001022D84120CFB8A0A8B0BAE0AAF0BEE5A
:102C23004F7003022D81AC08AD097402121FADAAC7
:102C330082AB83120D8B8E828F83A3A3750CFF75DA
:102C43000DFF750EFF750F00780C121DF374021241
:102C53001FAD7510FF7511FF7512FF751300781006
:102C6300121DF3780C7910121526502A780C79105E
:102C7300121DB87508017509C8750A00750B00782F
:102C830008790C1215265052850C08850D09850EFE
:102C93000A850F0B80507514017515C875160075DC
:102CA300170085100885110985120A85130B78080A
:102CB300790C121DB878147908121526401C750872
:102CC30000750900750A00750B0178087910121D4B
:102CD300B87808790C121D7F800C750801750900FE
:102CE300750A00750B0074097808121D60750C19BC
:102CF300F50DF50EF50F7808790C121CC48E828F32
:102D030083A3A3A3A3A3A3E0F8A3E0F97AD07B034F
:102D1300121ED6880C890DE4F50EF50F7808790C90
:102D2300121D7F7406121FADE0F8A3E0F97AD07B81
:102D330003121ED6E8FA8A0CE4F50D7808790C1212
:102D4300152650077808790C121DB89003E4E06447
:102D530008600AE064066005E06405702D750C0DDB
:102D6300780C79081215264021750CF4750DFF7542
:102D73000EFF750FFF7808790C121D7F800C750804
:102D830000750900750A00750B0085188285198383
:102D9300E0F8A3E0F58388827808121E28740812ED
:102DA3001F777F100220E974F712203D120D9D90CA
:102DB3000581E064017010906245E4F0A3F053F4E0
:102DC300F343FE0C5390F3120D49E5C65480444976
:102DD300F5C6E59E547F644970F8906185740FF0E1
:102DE30090057FE0F47002A3E0604E900580E06000
:102DF3000814601B14602E8040750801750900904B
:102E0300057FE07808121F4EE508F45280802A758A
:102E1300080175090090057FE07808121F4EE50848
:102E2300F45290801475080175090090057FE078CD
:102E330008121F4EE508F452A079007F020220E930
:102E430074F712203DE9FEEAFF74016E700C7A807C
:102E53007B009003E3E0F9121277903200E493F4DD
:102E63006008E493F9120B99800953C680E59E54D8
:102E73007F70FA120D4F900581E064017003120B0D
:102E8300B190057FE0F47002A3E0604B900580E011
:102E9300600814601A14602C803D750801750900E0
:102EA30090057FE07808121F4EE508428080287560
:102EB300080175090090057FE07808121F4EE508A8
:102EC3004290801375080175090090057FE078082A
:102ED300121F4EE50842A0120D9D120CFB8A088BAF
:102EE30009A808A909E8496015E5E170FCE824147C
:102EF300F582E93400F583E0F46003E0F5E1740161
:102F03006F700A7A019003E3E0F912131F022E3E59
:102F130074ED12203D8A088B098C0A8D0B741312F1
:102F23001FAD780C121E197808790C12152675102E
:102F3300017511C875120075130050127808790CC9
:102F4300121DB87810790812152650168010780CC7
:102F53007908121DB87810790C12152640047901EE
:102F6300800279007F0C0220E974ED12203D8A086B
:102F73008B098C0A8D0B7413121FAD780C121E195A
:102F8300780C790812152640117808790C121DB8AF
:102F9300AA08AB09AC0AAD0B8022751000751100AD
:102FA3007512007513017810790C121DB878107919
:102FB30008121D7FAA10AB11AC12AD1380A68A8232
:102FC3008B837508FF7509FF750AFF750B00780879
:102FD300121E067F040220E974F512203D8C828DB7
:102FE300837808121E198A828B837808121DCCEA13
:102FF3002404F8EB3400F98C828D83A3A3A3A3E00C
:10300300FCA3E0FD88828983C3E09CF0A3E09DF0EC
:1030130088828983C3E09420A3E0944E40268A8269
:103023008B837508FF7509FF750AFF750BFF780819
:10303300121DA58A828B83A3A3A3A3E02420F0A35C
:10304300E0344EF0022FC174F512203DE9FE9005E5
:1030530039E0FAA3E0FBEEC333F8E433F9745828FC
:10306300F582748139F583E02AF508A3E03BF5097D
:1030730078081221E47A407B427C0F7D00122B9C5E
:103083007402121F778A088B098C0A8D0B741078CF
:1030930008121D47AA08AB097F040220E974F11244
:1030A300203D8A0C8B0D8C0E8D0F740F121FADE01B
:1030B300FAA3E0FB7411121FADE0F508A3E0F509D4
:1030C30078081221E4EA2401F508EB3400F509E459
:1030D300F50AF50B780C7908121C4475087175090B
:1030E30002780C7908121C44AA0CAB0DAC0EAD0F80
:1030F300122B9C7402121F778B09EA450960047A2C
:103103000180027A00EC2AFCED3400FD7413121FD7
:10311300ADE0F8A3E0F9E8FEE9FFECF8EDF97A7128
:103123007B02121ED6880889098E828F8378081243
:103133001E28ECF8EDF97A717B02121ED68A088BF1
:103143000974057808121F4E8E828F83A3A3A3A34D
:10315300E508F0A3E509F07F080220E9C082C083F7
:10316300E9906000F0D083D08222C0E074F2122193
:1031730029A2AFE433FED2AFE589A2E250031211D4
:103183009F758900C2C5EEA2E092AF7F010221883C
:10319300C0E074F2122129A2AFE433FED2AFE58975
:1031A300A2E2500312119F758900C2EBEEA2E092D6
:1031B300AF7F01022188C0E0C0D0E8C0E0A2AFE445
:1031C30033F8D2AF758B00C2E8E8A2E092AFD0E04B
:1031D300F8D0D0D0E032C0E0C0D0E8C0E0A2AFE485
:1031E30033F8D2AFC2C7751A00E8A2E092AFD0E0BD
:0C31F300F8D0D0D0E032C2AF02000022C1
:10320000FFFFFFFFFFFFFFFF74EE121FD174FA12E2
:103210001F618A0A8B0BE9FF8C088D097E00850AE5
:103220000C850B0D780C122228000410E534503266
:1032300073329232B532D832FB322C334F3366338D
:103240009633463469348C34BA34E534E534BF33CC
:1032500074016F7019850882850983E0C394035057
:103260000D850882850983E0900D3BF080027E1871
:1032700002350D74026F7015850882850983E0F8A8
:10328000A3E0F9900D3CE8F0A3E9F080027E18027B
:10329000350D74016F7019850882850983E0C39428
:1032A00002500D850882850983E090087CF0800239
:1032B0007E1802350D74016F7019850882850983A7
:1032C000E0C39405500D850882850983E090087D50
:1032D000F080027E1802350D74016F701985088226
:1032E000850983E0C39402500D850882850983E037
:1032F00090087EF080027E1802350D74106F7027E2
:10330000750C10750D00780C1221E4AC08AD097A2B
:103310007F7B081212237402121F778A0C8B0D8593
:103320000C82850D8380027E1802350D74016F704A
:1033300019850882850983E0C39402500D850882AF
:10334000850983E090088FF080027E1802350D74A5
:10335000016F700D850882850983E0900D3FF08034
:10336000027E1802350D74046F7026908210780C5E
:10337000121E19850882850983780C1215365011A2
:10338000850882850983121E4F900891121E5B806A
:10339000027E1802350DEF70211206CBE970131270
:1033A00010CDE9F50D795012138BE9F50C1210BB15
:1033B000800A9009247401F080027E1802350D7491
:1033C000076F707D750E06750F00780E1221E4856B
:1033D0000882850983A3AC82AD837402121FBF12D9
:1033E00012297402121F778A108B1185100E851115
:1033F0000F7C007D00AA18AB19850882850983E03F
:10340000F912105BE9F50CE50CC3940A502F120673
:10341000CBE97015A90C1210D3E9F50E79501213EF
:103420008BE9F50D1210BB801AE50CF879007425B4
:1034300028F582740939F5837401F080067E0280D4
:10344000027E1802350D74016F7019850882850996
:1034500083E0C39402500D850882850983E09008BB
:1034600090F080027E1802350D74016F7019850886
:1034700082850983E0C3940A500D850882850983FB
:10348000E0900D3EF080027E1802350D74016F70E1
:1034900025850882850983E0C39407401985088241
:1034A000850983E0C39411500D850882850983E066
:1034B000900D40F080577E18805374016F702290F9
:1034C0000923E0F50C850882850983E0900923F043
:1034D000E50C7039900923E0640170311210BB8053
:1034E0002C7E188028C3E50A9427E50B9400501B16
:1034F00074026F7016850882850983E0FCA3E0FDE5
:10350000AA0AAB0B120569E9FE80027E02EEF9748D
:1035100006121F777F0A0220A374EC121FD174DAFF
:10352000121F61890D8A128B138C0A8D0B743A124B
:103530001FADE0F50C9081FCAC18AD197406121E9D
:1035400074AC18AD19AA12AB13A90D12105BE9FEE9
:10355000EEC3940A400302368EEEF912109DE9FF85
:10356000900D3BE064027004740180027400F50861
:1035700078081221E8AD0CEFFCEEF9AA0AAB0B12A9
:10358000110F7401121F777C147D007900741212E0
:103590001FBF12123B8A0E8B0F850E08850F097410
:1035A00012121FC77A1075F006EEA42424F9121324
:1035B00085E9703C7C1079FF7412121FBF1212A1B2
:1035C000E9702D7422121FADAC82AD837A0475F0C0
:1035D00006EEA42425F9121385E9F5087412121FCA
:1035E000C7EFA2E0E433F9AA0AAB0B1205F3E9F83E
:1035F0007406121FC77A0C74702EF9121385E970C5
:103600007A7406121FBF121091750E00E50EC39456
:10361000045068E50EF87900E875F003A4C8AAF034
:1036200075F000A42AFA75F003E9A42AF9740612C9
:103630001FADE58228F508E58339F50985088285FF
:103640000983E0F8A3E0F9E849602C850882850940
:1036500083A3A3E0F51075110078101221E485080A
:1036600082850983E0FCA3E0FDAA0AAB0B1208E700
:103670007402121F77E9F8050E8091EFA2E1500E57
:1036800090087BE0F9AA0AAB0B1208EDE9F8740484
:10369000650C700F900D3BE064027007AA0AAB0B3B
:1036A00012110979007426121F777F0C0220A3746F
:1036B000F2121FD1890BEAFEEBFF8C088D09750A07
:1036C0000AE50B600C14600914604414606402374E
:1036D00054EEFAEFFB1210AFE9F50AE50AC3940ABB
:1036E0005072E5084509606C750C06750D00780C84
:1036F0001221E4EEFCEFFDAA08AB091212237402BA
:10370000121F778A0C8B0D850C82850D838045EE08
:10371000FAEFFB1210A9E9F50AE50AC3940A50343E
:10372000E5084509602EAA08AB09A90A1210A3E909
:103730008022EEFAEFFB1210B5E9F50AE50AC39410
:103740000A5011E5084509600BAA08AB09A90A123D
:1037500010A3E9F8A90A7F060220A374F2121FD170
:103760008A0C8B0DE9FF7E1574FF650C700474FFE5
:10377000650D702A750800E508C3940A5014EFFC23
:103780007A027B00A90812107FE960027E0005081A
:1037900080E5EF60627AF77B10120ADF8059AA0C8D
:1037A000AB0D120AC18A0A8B0B850A08850B09E545
:1037B00008450960407C007D00E5082405FAE435F1
:1037C00009FB850882850983A3A3A3A3E0F912104E
:1037D0005BE9F50AE50AC3940A500EEFFC7A027B16
:1037E00000A90A12107FE97E00EF600BAA08AB095E
:1037F0001210F780027E14EEF97F060220A374EE09
:10380000121FD18A0E8B0F8C0A8D0B7412121FADF2
:10381000E0F50CA3E0F50D75081574FF650E700456
:1038200074FF650F701E7E00EEC3940A5061AC0CED
:10383000AD0DAA0AAB0BEEF9121085E9600375080D
:10384000000E80E4AA0EAB0F120AC18A108B11AED3
:1038500010AF11EE4F60357C007D00EE2405FAE4D8
:103860003FFB8E828F83A3A3A3A3E0F912105BE931
:10387000F509E509C3940A5016AC0CAD0DAA0AABC4
:103880000BA909121085E97508008003750814A9B1
:10389000087F0A0220A374F7121FD1EAFEEBFF9003
:1038A0000895EEF0A3EFF090087BE0FC7D007A260F
:1038B0007B00120569E9F50890087BE0F9120869B8
:1038C0007F010220A374EE121FD18A108B11E9FF31
:1038D0007412121FAD780C121E197E00EF70418514
:1038E0000C08850D09850E0A850F0B908210780C47
:1038F000121E197808790C121CC478101221E4AA3F
:103900000CAB0DAC0EAD0F1206057402121F77E959
:10391000FEEE60177901AA10AB111205FFE9800BCA
:10392000EFF9AA10AB111205FFE9F8EEF97F0A02D0
:1039300020A374F2121FD174EC121F618A0A8B0B40
:10394000850A82850B83A3A3E024FA7003023D6BF2
:1039500024FD7003023BEE147003023A221460103F
:1039600024FD7003023B96147003023C2D023DD3EC
:10397000AE0AAF0B900895E0F8A3E0F9E84960665D
:10398000900895E0F8A3E0F5838882E0F8A3E0F9D9
:10399000E8496052EE240CF582E43FF583E0F50837
:1039A00078081221E8EE240BF582E43FF583E0F974
:1039B0008E828F83A3A3A3A3A3A3A3A3A3E0FCA3AB
:1039C000E0FDEE2403FAE43FFB900895E0F8A3E065
:1039D000F5838882E0F8A3E0F5838882121FCF7414
:1039E00001121F7780398E828F83A3A3A3A3A3A381
:1039F000A3A3A31221FB900891121E37120605748F
:103A000002121F77E9601879018E828F83A3A3A326
:103A1000A3A3A3A3A3A3E0FAA3E0FB1205FFE9027B
:103A20003DD3AE0AAF0B8E828F83A3E06003023BCF
:103A3000448E828F83A3A3A3A3A3E0A2E04003024A
:103A40003B4490092FE0F8A3E0F9E8496003023B0A
:103A5000447C0E7D007900AA18AB1912123B8A082B
:103A60008B09AA08AB09EE240CF582E43FF583E04C
:103A7000F8A3E0F9E849603675080675090078088A
:103A80001221E4EE240CF582E43FF583E02410FCDF
:103A9000A3E03400FD7402121FBF1212237402123D
:103AA0001F778A088B09850882850983804F8E825B
:103AB0008F83A3A3A3E0FAA3E0FB120AC18A0C8BB5
:103AC0000D850C08850D09E5084509602D750C0666
:103AD000750D00780C1221E4E5082405FCE4350995
:103AE000FD7402121FBF1212237402121F778A0C78
:103AF0008B0D850C82850D838003023DD38E828FD2
:103B000083A3A3A3A3A3E0A2E25004D2F08002C245
:103B1000F0A2F0E433F87900740C121FADE048F025
:103B2000A3E049F0EEFCEFFDAA18AB19121097E9DB
:103B300070127A027B0090087BE0F9121277E97923
:103B400000023DD5900895E0F8A3E0F9E84960430C
:103B5000900895E0F8A3E0F5838882A3A3E0F8A39A
:103B6000E0F9E849602D8E828F83A3E0FC79018E15
:103B7000828F83A3A3A3E0FAA3E0FB900895E0F86B
:103B8000A3E0F5838882A3A3E0F8A3E0F58388820D
:103B9000121FCF023DD3AE0AAF0B900895E0F8A3F9
:103BA000E0F9E8496045900895E0F8A3E0F58388DE
:103BB00082A3A3E0F8A3E0F9E849602F850A828593
:103BC0000B83A3E0FC79028E828F83A3A3A3E0FA88
:103BD000A3E0FB900895E0F8A3E0F5838882A3A317
:103BE000E0F8A3E0F5838882121FCF023DD3AE0A2E
:103BF000AF0B7C007D00EE2404FAE43FFB8E828F45
:103C000083A3A3A3E0F912105BE9F508E508C394C8
:103C10000A5017EE240AFCE43FFD7A0475F006E52D
:103C200008A42425F912137FE9F8023DD3AE0AAFA8
:103C30000B900890E06019900D3EE0F98E828F8322
:103C4000A3A3A3E0FAA3E0FB1205FFE9F8023DD32A
:103C5000900D3BE0701679058E828F83A3A3A3E0BD
:103C6000FAA3E0FB1205FFE9F8023DD38E828F83B1
:103C7000A3A3A3E0FAA3E0FB120AC18A0C8B0D8573
:103C80000C08850D098E828F83A3A3A3A3A3A3A3EE
:103C9000E0A2E05068E5084509605F850882850973
:103CA00083A3A3A3A3E060558E828F83A3A3A3A3C2
:103CB000A3A3A3A3A3E0F8A3E0F9E8C4540F54011D
:103CC000A2E04039740E121FC7E5082405FAE43556
:103CD00009FB850882850983A3A3A3A3E0F9121039
:103CE0005BE9701979038E828F83A3A3A3E0FAA303
:103CF000E0FB1205FFE9F8023DD3023DD3EE2405B7
:103D0000FCE43FFD850882850983A3A3A3A3E0F912
:103D10008E828F83A3A3A3E0FAA3E0FB121103908A
:103D20000895E0F8A3E0F9E849603E900895E0F8CE
:103D3000A3E0F5838882A3A3E0F8A3E0F9E8496053
:103D4000287C0079008E828F83A3A3A3E0FAA3E0EE
:103D5000FB900895E0F8A3E0F5838882A3A3E0F840
:103D6000A3E0F5838882121FCF80681206CBE9702A
:103D700062900924E06401701A1210CDE9FE9009E6
:103D8000247400F07C0A7D0079007A257B091212E8
:103D90003B80367E00EEC3940A502EEEF879007414
:103DA0002528F582740939F583E064017018EEF96D
:103DB0001210D3E9F8EEFA7B0074252AF582740913
:103DC0003BF5837400F00E80CC795012138BE9FE22
:103DD0001210BB79017414121F777F060220A3749E
:103DE000F5121FD174F2121F618909EAFEEBFF8CF4
:103DF0000AAC18AD197A0E75F006E509A42420F96D
:103E0000121385E970617C0679FFAA18AB191212AA
:103E1000A1E97053740C121FADE0F8A3E0F9E8F5C6
:103E200008E50A6005EE42088004EEF45208E50851
:103E3000F87900740C121FADE0687003A3E06960AC
:103E400022E508F87900740C121FADE8F0A3E9F040
:103E5000AC18AD197A0E75F006E509A42420F91204
:103E6000137FE9790180027900740E121F777F03B6
:103E70000220A374F0121FD174E6121F61890B8A0D
:103E80000C8B0DECFEEDFF740C121FC77A0E75F053
:103E900006E50BA42420F9121385E96003023FA371
:103EA0007C0679FF740C121FBF1212A1E960030295
:103EB0003FA3AC18AD197A0C7470250BF912138559
:103EC000E96003023F9F750A00AA18AB191210910E
:103ED000E50C450D702E7C0C7900AA18AB19121256
:103EE000A1E96003023F857C0C7D007900AA18AB34
:103EF0001912123B8A088B09850882850983750A85
:103F000001023F85AC18AD19AA0CAB0D12108B8ABB
:103F10000E8B0F850E08850F09E50845097030EEF8
:103F20004F601BAC18AD197A007B0012108B8A0E03
:103F30008B0FA80EA90F88088909E8497004790039
:103F40008063850882850983E50CF0A3E50DF08583
:103F50000882850983A3A3E0F87900EE687002EF78
:103F6000696022EEC0E0850882850983A3A3D0E0C2
:103F7000F0EE4F700D8508828509837400F0A374FC
:103F800000F0750A01E50A6016AA18AB1912109123
:103F9000AC18AD197A0C7470250BF912137FE979FE
:103FA0000180027900741A121F777F080220A3741F
:103FB000F7121FD1EAFEEBFF7A00EAC39404504ED9
:103FC000EAF87900E875F003A4C8ABF075F000A436
:103FD0002BFB75F003E9A42BF9EC28F582ED39F5FC
:103FE00083E06E7003A3E06F7021EAF87900E87552
:103FF000F003A4C8AAF075F000A42AFA75F003E94A
:10400000A42AF9EC28FAED39FB80070A80AC7A0083
:104010007B007F010220A374F7121FD17C00ECC348
:10402000940440030240C6ECF87900E875F003A45C
:10403000C8ADF075F000A42DFD75F003E9A42DF9CD
:10404000EA28F582EB39F583E0F4FEA3E0F4FFEC17
:10405000F87900E875F003A4C8ADF075F000A42D60
:10406000FD75F003E9A42DF9EA28F582EB39F58313
:10407000EEF0A3EFF0ECF87900E875F003A4C8AD1A
:10408000F075F000A42DFD75F003E9A42DF9EA28E0
:10409000F582EB39F583A3A3E0F4C0E0ECF87900F6
:1040A000E875F003A4C8ADF075F000A42DFD75F01F
:1040B00003E9A42DF9EA28F582EB39F583A3A3D00F
:1040C000E0F00C02401E7F010220A374F0121FD109
:1040D00074F4121F61EAFEEBFF8C088D0990092F22
:1040E000E0F8A3E0F9E849702CEE4F6006E50845DA
:1040F0000970057901024377EEFAEFFB1210AFE980
:10410000900D41F0900D41E0C3940A40081210C197
:10411000E9900D41F0900D41E0C3940A4003024341
:104120007590092FE0F8A3E0F9E84960030241C166
:10413000EEFCEFFD7A0E75F006900D41E0A4242010
:10414000F912137FE9F50C7C0C7D0079FFAA18ABFE
:104150001912123B8A0E8B0F850E0A850F0BAC18B5
:10416000AD197A0C900D41E02470F912137FE9F536
:104170000D750E0E750F00780E1221E4EEFCEFFDAA
:10418000900D41E0F87900E875F00EA4C8AAF0752A
:10419000F000A42AFA75F00EE9A42AF9749728FA17
:1041A000740839FB1212237402121F778A0E8B0FC8
:1041B000A80EA90F90092FE508F0A3E509F0024326
:1041C0007190092FE0F8A3E0C82406F582C83400F6
:1041D000F583E0F8A3E0F9E849604390092FE0F89F
:1041E000A3E0C82406F582C83400F583E0FCA3E010
:1041F000FD7A1B75F006900D41E0A42421F91213FD
:104200007FE9F890092FE0F9A3E0C92406F582C9F7
:104210003400F5837400F0A37400F0024371900938
:104220002FE0F8A3E0C8240AF582C83400F583E043
:10423000F8A3E0F9E849604390092FE0F8A3E0C84B
:10424000240AF582C83400F583E0FCA3E0FD7A1B64
:1042500075F006900D41E0A42422F912137FE9F8CD
:1042600090092FE0F9A3E0C9240AF582C93400F5CA
:10427000837400F0A37400F002437190092FE0F8FA
:10428000A3E0C8240CF582C83400F583E0F8A3E06D
:10429000F9E849604390092FE0F8A3E0C8240CF541
:1042A00082C83400F583E0FCA3E0FD7A1075F006C7
:1042B000900D41E0A42423F912137FE9F890092F0F
:1042C000E0F9A3E0C9240CF582C93400F583740039
:1042D000F0A37400F002437190092FE0F8A3E0C846
:1042E0002408F582C83400F583E0F8A3E0F9E84932
:1042F000606F90092FE0F8A3E0C82408F582C83465
:1043000000F583E0FCA3E0FD7A1075F006900D4106
:10431000E0A42424F912137FE9F50A90092FE0F8AC
:10432000A3E0C82408F582C83400F583E02410FC1B
:10433000A3E03400FD7A0475F006900D41E0A4245A
:1043400025F912137FE9F890092FE0F9A3E0C924B9
:1043500008F582C93400F5837400F0A37400F0807E
:1043600010900923E060031211151210FD790180ED
:1043700006790080027901740C121F777F080220F1
:10438000A374F7121FD174F2121F61E9FEAC18ADCD
:10439000197A0E75F006EEA42420F9121385E9703F
:1043A0000E740C121FADE0F8A3E0F9E8F980027971
:1043B00000740E121F777F010220A374F4121FD124
:1043C00074F2121F618909EAFEEBFFE509C3940A42
:1043D0005004EE4F700479028041AC18AD197A0E8A
:1043E00075F006E509A42420F9121385E9F508E51E
:1043F000087026750A06750B00780A1221E474020B
:10440000121FC7EEFAEFFB1212237402121F778AF3
:104410000A8B0B850A82850B83A908740E121F77FD
:104420007F040220A374F4121FD1EAFEEBFF75088B
:1044300000E508C3940A5044750A06750B00780A13
:104440001221E4EEFCEFFDE508F87900E875F00EC6
:10445000A4C8AAF075F000A42AFA75F00EE9A42AFF
:10446000F9749D28FA740839FB1212357402121F70
:1044700077E96004A9088006050880B5790A7F04F9
:104480000220A374F4121FD1EAFEEBFF750800E5C9
:1044900008C3940A5044750A06750B00780A122165
:1044A000E4EEFCEFFDE508F87900E875F00EA4C82D
:1044B000AAF075F000A42AFA75F00EE9A42AF9749E
:1044C0009728FA740839FB1212357402121F77E923
:1044D0006004A9088006050880B5790A7F040220D7
:1044E000A374F7121FD174F0121F61EAFEEBFF757F
:1044F0000800E508C3940A5039AC18AD197A107554
:10450000F006E508A42423F9121385E970207C1035
:1045100079FFAA18AB191212A1E97012EEFCEFFD97
:10452000AA18AB191205D5E97004A9088006050878
:1045300080C0790A7410121F777F010220A374F4DF
:10454000121FD1750800E508C3940A400302461CF7
:10455000E508F87900E875F00EA4C8AAF075F00037
:10456000A42AFA75F00EE9A42AF9749728FC7408B5
:1045700039FD7A0E75F006E508A42420F91213859A
:10458000E970030246177C067D0079FFE508FA7B97
:1045900000EA75F00EA4CAA8F075F000A428F8751A
:1045A000F00EEBA428FB74972AFA74083BFB121256
:1045B0003B8A0A8B0BAE0AAF0B7C067D0079FFE5C8
:1045C00008FA7B00EA75F00EA4CAA8F075F000A402
:1045D00028F875F00EEBA428FB749D2AFA74083BAA
:1045E000FB12123B8A0A8B0BAC0AAD0BE508F8797B
:1045F00000E875F00EA4C8AAF075F000A42AFA75B8
:10460000F00EE9A42AF974A328F582740839F58319
:104610007400F0A37400F00508024546900923E0F9
:1046200060031211151210FD7F040220A374F7120B
:104630001FD17E00EEC3940A50327C0679FFEEFA59
:104640007B00EA75F00EA4CAA8F075F000A428F863
:1046500075F00EEBA428FB74972AFA74083BFB1242
:1046600012A1E96004EEF980050E80C8790A7F0185
:104670000220A374F7121FD17E007F00EFC3940ABB
:10468000502F7C0679FFEFFA7B00EA75F00EA4CA82
:10469000A8F075F000A428F875F00EEBA428FB74C0
:1046A000972AFA74083BFB1212A1E970010E0F80E1
:1046B000CBEEF97F010220A374F7121FD17E007F99
:1046C00000EFC3940A500DEE700AEFF91210D3E90F
:1046D000FE0F80EDEEF97F010220A374F0121FD1CE
:1046E00074CB121F618909900D41E06509701D7A34
:1046F000017B0090087BE0F912127DE97A027B00D1
:1047000090087BE0F912127DE91211217427121F23
:10471000C77A0E75F006E509A42420F9121385E97D
:1047200060030248137C0679FF7427121FBF121220
:10473000A1E960030248137C0E7D0079FF74271203
:104740001FBF12123B8A0A8B0B850A0C850B0D7C4E
:104750001B7D0079FF740C121FBF12123B8A0E8B57
:104760000F850E0A850F0B7C0C7D0079FFAA18AB14
:104770001912123B8A0E8B0FAE0EAF0F7427121F49
:10478000C77A0E75F006E509A42420F912137FE913
:10479000F508740C121FC77A1B75F006E509A424EE
:1047A00021F912137FE94208740C121FC77A1B7596
:1047B000F006E509A42422F912137FE94208740CDB
:1047C000121FC77A1075F006E509A42423F9121305
:1047D0007FE94208740C121FC77A1075F006E509CC
:1047E000A42424F912137FE94208740C121FC77A1B
:1047F0000475F006E509A42425F912137FE942089F
:10480000AC18AD197A0C74702509F912137FE942BE
:10481000088003750800A9087435121F777F080205
:1048200020A374F7121FD1E9FEEE90087BF012105E
:10483000BB7F010220A374F2121FD1890AEAFEEBAA
:10484000FFEE5400F8EF5480F9E849603590087B9A
:10485000E0F912125F8A0C8B0DA80CA90D8808894B
:1048600009E8496012AA08AB091210E5E96008AA34
:1048700008AB0912124DE9EE6400FAEF6480FB0206
:10488000493AEE5402602D7C007D007A007B0012D4
:104890001097E960187A017B0090087BE0F912120A
:1048A00077E9EE6402FAEF6400FB02493A7A027B90
:1048B0000002493AEEA2E0507D90092FE0F8A3E013
:1048C000F5838882A3A3A3E0FAA3E0FB12111BE9FE
:1048D000605E900895E0F8A3E0F9E849604590082B
:1048E00095E0F8A3E0F5838882A3A3E0F8A3E0F9BC
:1048F000E849602F7C00790190092FE0F8A3E0F5EA
:10490000838882A3A3A3E0FAA3E0FB900895E0F8D4
:10491000A3E0F5838882A3A3E0F8A3E0F58388826F
:10492000121FCF121121EE6401FAEF6400FB800A1E
:104930007A017B0080047A007B007F060220A3744A
:10494000F7121FD1EAFEEBFF7508018E828F83E01C
:104950002450601314601924E1701CEEFAEFFB126E
:104960001079E9F5088010EEFAEFFB1210EB8007E2
:10497000EEFAEFFB1210F1A9087F010220A374F7F1
:10498000121FD1EAFEEBFF8E828F83A3A3A3A3E0C5
:10499000641E701179008E828F83A3A3E0FAA3E0D6
:1049A000FB121061E97F010220A374F6121FD1EA05
:1049B000FEEBFF8E828F83A3A3A3A3E0703A8E0841
:1049C0008F09850882850983A3A3A3A3A3A3A312A8
:1049D00021FB850882850983A3A3A3A3A3E0FCA3ED
:1049E000E0FD850882850983A3A3E0FAA3E0FB121A
:1049F00010677402121F77E97F020220A374F71276
:104A00001FD1EAFEEBFF90087BE0F98E828F83A333
:104A1000E0FAA3E0FB1208EDE97F010220A3C082C7
:104A2000C08374FF121F611210C7E9C39402400BC8
:104A30008518828519837402F0800985188285198A
:104A400083740AF0AC18AD197A0179051206E3E90E
:104A50007401121F77D083D08202013274F2121FC8
:104A6000D174E8121F61EAFEEBFF890A8C088D09F8
:104A70007C187D007900AA18AB1912123B8A0C8BA6
:104A80000DAA0CAB0D851882851983EEF0A3EFF00B
:104A900090087DE0C0E07402121FADD0E0F09008F5
:104AA0007EE0C0E07403121FADD0E0F0900D40E056
:104AB000C0E07417121FADD0E0F07415121FADE006
:104AC00054FEF0A3E054FFF0900D3FE0A2E0E43389
:104AD000F879007415121FADE048F0A3E049F0909A
:104AE0000D3FE0A2E15004D2F08002C2F074151232
:104AF0001FADE054FDF0A3E054FFF0A2F0E433F862
:104B00007900E828F8E933F97415121FADE048F090
:104B1000A3E049F0900D3FE0A2E35004D2F0800200
:104B2000C2F07415121FADE054F7F0A3E054FFF08B
:104B3000A2F0E433F50C750D007403780C121F4ECF
:104B40007415121FADE0450CF0A3E0450DF0900D7B
:104B50003FE0A2E45004D2F08002C2F07415121FAC
:104B6000ADE054EFF0A3E054FFF0A2F0E433F50C15
:104B7000750D007404780C121F4E7415121FADE0F1
:104B8000450CF0A3E0450DF0900D3FE0A2E5500488
:104B9000D2F08002C2F07415121FADE054DFF0A312
:104BA000E054FFF0A2F0E433F50C750D00740578C5
:104BB0000C121F4E7415121FADE0450CF0A3E0451A
:104BC0000DF0900D3FE0A2E25004D2F08002C2F05E
:104BD0007415121FADE054FBF0A3E054FFF0A2F0F7
:104BE000E433F50C750D007402780C121F4E741529
:104BF000121FADE0450CF0A3E0450DF090087EE0FB
:104C0000602A750C10750D00780C1221E47C7F7DF4
:104C1000087406121FADAA82AB831212237402120B
:104C20001F778A0C8B0D850C82850D8390088FE091
:104C30006012E50A600E7415121FADE04402F0A385
:104C4000E04400F090088FE060067801790080046D
:104C5000780079007414121FADE048F090087CE0F1
:104C60006006780479008004780079007414121FBB
:104C7000ADE048F0AC08AD09AA18AB191205F9E986
:104C80007418121F777F060220A374F7121FD1EA4F
:104C9000FEEBFF75080090088FE060067801790050
:104CA000800478007900E8420890087CE06006788B
:104CB000047900800478007900E84208A908EEFA37
:104CC000EFFB1206B3E97F010220A374EE121FD19D
:104CD00074E5121F618A0C8B0D89088C098D0A748A
:104CE0002D121FADE0FF7408650A700B75F006E524
:104CF00008A42422FE800975F006E508A42421FEFC
:104D00007C1B7D007900AA18AB1912123B8A108B0C
:104D10001185100E85110FAC18AD197A1BEEF91222
:104D20001385E97037741A121FADE0C39407402C45
:104D3000741A121FADE0C394115021EFF50B780BDC
:104D40001221E87401121FC7E509A2E0E433F9AAB1
:104D50000CAB0D12060B7401121F77E9741B121FA6
:104D6000777F0A0220A374F7121FD112095FE97E30
:104D700000EEC3940A50567C0679FFEEFA7B00EAF7
:104D800075F00EA4CAA8F075F000A428F875F00E0E
:104D9000EBA428FB74972AFA74083BFB1212A1E9D2
:104DA0007028EEF87900E875F00EA4C8AAF075F046
:104DB00000A42AFA75F00EE9A42AF9749728FA7467
:104DC0000839FB7900120965E9F80E80A47F010219
:104DD00020A374F6121FD174FD121F61EAFEEBFFCF
:104DE000900931E0F8A3E0F9E849703975083375A6
:104DF000090978081221E47508027509007808127B
:104E000021E475088675098278081221E47CFF7D0B
:104E1000FF7A017B001207B57406121F77900931E3
:104E2000EAF0A3EBF0900931E0F8A3E0F9E849706B
:104E300003024EEFE4F508F50978081221E4740442
:104E4000121FB78808890978081221E47404121F18
:104E5000B78808890978081221E49009331221FBE8
:104E60007902900931E0FCA3E0FDEEFAEFFB1208B5
:104E7000DB7408121F77E9704A851882851983E070
:104E8000FA7B007401121FADE0F87900E4C8F9EA7A
:104E900028F508EB39F509E5084509602678081278
:104EA00021E4900931E0F8A3E0F5838882A3A3A36D
:104EB000A3E0FCA3E0FDEEFAEFFB12106774021210
:104EC0001F77E9E4F508F50978081221E490093321
:104ED0001221FB7CFF7DFF900931E0FAA3E0FB1279
:104EE00007C17404121F77900931EAF0A3EBF09028
:104EF0000931E0F8A3E0F9E849700479018002790A
:104F0000007403121F777F020220A3C082C0839027
:104F1000092FE0F8A3E0F9E849601790092FE0FABB
:104F2000A3E0FB12124DE9F890092F7400F0A3746E
:104F300000F0900D41740AF0D083D082020132C09B
:104F400082C083E9900C51F002516974F7121FD1AD
:104F5000E9900323F07C5B7D037AFF7BFF1208F36B
:104F600090032474FFF0A3F0A3E4F0A3F0790512FA
:104F70000881900323E0F912079D7A0B7B09120A3E
:104F8000AF7F010220A374F4121FD18A088B09EBB2
:104F900054806030900323E0F912125F8A0A8B0B71
:104FA000AE0AAF0BEE4F60138E828F83E064B07059
:104FB00003120893EEFAEFFB12124DAA08E50964FA
:104FC00080FB80047A007B0002513874F2121FD1FA
:104FD00074FC121F61EAFEEBFFEE4F6038740212A0
:104FE0001FADEEF0A3EF12539DECF0A3ED12539D15
:104FF000AA82AB83120797E9F50870737412121F27
:10500000AD125F51E50A450B60658E828F831250A9
:1050100079EE4F700575080280557A067B001213F1
:10502000078A0C8B0DA80CA90DE8497005750813AB
:10503000803D88828983E4125083A3A3EEF0A3EF1E
:105040001263EAE50AF0A3E50BF090032912510B75
:105050009003296017E0FCA3E08003EAFCEBFD8CE1
:10506000828D8312510B70F38C828D83125E76A930
:10507000087404121F770265ECA3A3A3A3E0FEA3A8
:10508000E0FF22F0A3F0888289832274F2121FD1FC
:10509000890AE975F017A4FEAFF0900328E4F090B8
:1050A000032612510B600A12130D900326E4F0A39D
:1050B000F0EEFAEFFB1213078A088B09EA45096044
:1050C0002FEEFCEFFD790012123B900326E508F06D
:1050D000A3E509F07B0080081250F5E4F0A3F00B83
:1050E000EBC3950A40F2E50A900328F079008002AC
:1050F00079130265ECEB75F017A4F8A9F09003267C
:10510000E028FAA3E0398A82F58322125C0CEA4B8C
:105110002274F4121FD17900EAA2E0501B7508F046
:1051200075098178081221E47C047D007A537B0C98
:1051300012087B7402121F777F040220A3C082C072
:1051400083900329125170601C88828983A3A3E095
:105150006A7003A3E06B8882898370E8A3A3A3A38A
:10516000125C0880047A007B00D083D08202013276
:105170001266BFE8492274EE121FD174FC121F613F
:10518000EAFEEBFF851882851983E4F0A3F0EE2494
:1051900002125E5AEE240512538BEE2404F50EEF34
:1051A000125770E024FE603924FC604624FE6052F1
:1051B00024FE605E24FE700302529024FE700302FF
:1051C000530824FE700302531724FE700302532673
:1051D00024FC700302533524FE700302534402532F
:1051E000819003427417F0A3E41253A51204250220
:1051F0005381851882851983AC82AD831208990288
:105200005351851882851983AC82AD8312089F02A1
:105210005351850C08850D097402121FADAC82AD87
:1052200083850882850983125C081207BB8A0C8B70
:105230000DAC0CAD0DEC4D6042E4F50CF50D780CA9
:105240001221E4750C42750D03780C1221E4750CE3
:1052500043750D03780C1221E47408121FAD12215E
:10526000FB7916125C021208DB7408121F77E9F54D
:105270000C700B125BFE12043D800F750C0185084B
:1052800082850983125393125E76850C080253546B
:105290007402121FADAC82AD83850C82850D831222
:1052A0005C081207BB8A108B11AC10AD11EC4D607D
:1052B00043850C82850D83A3A31221FB75104275D3
:1052C000110378101221E475104375110378101240
:1052D00021E47408121FAD1221FB7916125C021230
:1052E00008DB7408121F77E9F509700B125BFE12D8
:1052F0000443800F750901850C82850D8312539339
:10530000125E76850908804C851882851983AC82E7
:10531000AD831208A5803A851882851983AC82ADC9
:10532000831208AB802B851882851983AC82AD83EC
:105330001208B1801C851882851983AC82AD831256
:1053400008B7800D851882851983AC82AD83120859
:10535000BDE9F508E50860298E828F83A3E0641417
:10536000601F850E82850F83E090034212539D12C9
:1053700066BB900343125E76E508A31253A51204A0
:105380001FEEFAEFFB12083F025D62F50CEF3400EE
:10539000F50D221266BF85188285198322F08518C3
:1053A0008285198322F07C427D03850A82850B83E6
:1053B000125C0C2274EE121FD174FC121F618A0A57
:1053C0008B0B8C0E8D0FEA2405F508EB3400F509E4
:1053D0007C157D0079007A427B0312123BE508249C
:1053E00002F50CE50912538E851882851983858292
:1053F0001085831178101221E4850882850983A322
:10540000A3A3A31258B81221E4E5082405F510E57A
:10541000093400F51178101221E4850C82850D8382
:10542000125C121207B57406121F778A108B11AE28
:1054300010AF11E50A2402F50AE50B125E5DEE4F8E
:10544000700302557A80177402121FAD125C08882F
:10545000828983EAF0A3EBF0900342E004F090032A
:1054600042E0C39405400302557AE4F510F5117843
:10547000101221E475102B75110378101221E475B8
:10548000102C75110378101221E47406121FAD124E
:1054900021FB7910EEFCEFFD125C021208DB7408B0
:1054A000121F77E9705E850882850983A3A3A3A3F1
:1054B000A3A3A3E0F890032BE06870481258B81239
:1054C00021E47C2C7D03E5082408FAE5093400FB7F
:1054D0001212357402121F77E960298E828F83A31E
:1054E000A3A3A3125C08900342E0F51074027810A5
:1054F000121F4E74432510F58274033511F583EAAB
:10550000F0A3EBF07402121FAD8582108583117831
:10551000101221E47402121FAD1221FB850C82854A
:105520000D831266D01207C17404121F778A108B84
:1055300011AE10AF11900342E0F510751100740226
:105540007810121F4E74422510F874033511F98833
:10555000828983A312510B700302543EE82403F89E
:10556000E93400F9EE4F600302544788828983745E
:10557000FFF0A3F0900342E004F0900342E0600AE1
:10558000125BFE1204317900800B85088285098345
:10559000125E6D790A025D6274EA121FD174FE1206
:1055A0001F618C128D13EA2405F50CEB1266DA12DA
:1055B000507D750800750900EA2402F510EB3400EF
:1055C000F51185188285198385820A85830B780AEF
:1055D0001221E4850C82850D83A3A3A3A312577A1D
:1055E0001221E4E50C2405F50AE50D125E5D780A4A
:1055F0001221E4850C82850D831266CE1207B574E4
:1056000006121F778A0A8B0BEA450B700302572B91
:10561000EA2404F50EEB12577012507D8A828B83B8
:10562000A3A3A3E0F9851082851183125C081207F9
:10563000A3E9F509600302572BE4F514F515781476
:105640001221E475142B75150378141221E47514D6
:105650002C75150378141221E47406121FAD122163
:10566000FB7913AC0AAD0B851082851183125C089F
:105670001208DB7408121F77E9F509600302572B43
:1056800090032BE0F8E5087009E02402900343F052
:105690008017900343E0FCE82402FAE43400FBEABC
:1056A0006C7001EB600302572F850882AA821258A2
:1056B000AF94141258A75073850E82850F83E0C0F3
:1056C000E074442A125767D0E0F00508850E828501
:1056D0000F83A3E0C0E085080A7444250A125767C7
:1056E000D0E0F0050890032B12577A1221E47C2CAD
:1056F0007D0385080A7444250AFA74033400FB12FA
:1057000012237402121F7790032BE02508F508740A
:10571000FF6E700374FF6F6012EE24010EEF340011
:10572000FFE508C3941450030255C2E50860131244
:105730005AF3851082851183125C081204377900B0
:105740008014E509700375090A851282851383EEBA
:10575000F0A3EFF0A9097402121F777F0E0220A3B5
:1057600085080C7444250CF58274033400F58322FB
:105770003400F50F850E82F583221263FD2274EE4C
:10578000121FD174FE121F618C0E8D0FEA2405F5D5
:105790000CEB12538E750B00900342E4F0F50AEA0D
:1057A0002402F508EB3400F5098049900342E0FA41
:1057B00090032BE0F81258AF94171258A7400D90A1
:1057C0000342E0F87416C39890032BF01258B812F5
:1057D00021E47C2C7D0374432AFA74033400FB1209
:1057E00012237402121F7790032BE0F8900342E01B
:1057F00028F0050AE50C2416F582E50D12576BE03A
:10580000F8E50AC3984003025890900342E0C3941D
:1058100016507DE50AC333F8E433F9E50C28FEE5BC
:105820000D39FF851882851983AC82AD838E828FF6
:1058300083125C081207BB8A108B11AC10AD11ECFF
:105840004D7005750B018043E4F510F511781012C9
:1058500021E475102B75110378101221E475102CBA
:1058600075110378101221E47406121FAD1221FB8A
:105870007916850882850983125C081208DB740892
:10588000121F77E9F50B70030257AB125E698010A7
:105890007C427D03850882850983125C08120449D5
:1058A000A90B7402025D64E99400C365D03322EA57
:1058B00028F8E43400F9E822E0F5107511007810BA
:1058C0002274EA121FD174FC121F618A0C8B0D8C9A
:1058D000128D13EA2405F50AEB125E5D750800755A
:1058E0000900E50A2402F510E50B3400F5117402F5
:1058F000121FAD85820E85830F780E1221E4850A72
:1059000082850B83A3A3A3A31263A91221E4E50A52
:105910002405F50EE50B3400F50F780E1221E48511
:105920001082851183125E63125C021207B5740641
:10593000121F778A0E8B0FAE0EAF0FE50C2402F507
:105940000EE50D3400F50F80408882898374FFF0E6
:10595000050812576074FFF0050890032BE0F50C62
:10596000750D00780C1221E47C2C7D0385080C74E5
:1059700044250CFA74033400FB1212237402121F24
:105980007790032BE02508F508EE4F60718E828F2B
:1059900083A3A3A3E0F9850E82850F83125C08120E
:1059A00007A3E9F509EE240412538BE97044E4F5EA
:1059B00014F51578141221E475142B751503781459
:1059C0001221E475142C75150378141221E474085F
:1059D000121FAD1221FB7911EEFCEFFD850E8285C1
:1059E0000F83125C081208DB7408121F77E9F509AF
:1059F0006027850C82850D83125AE9125E76E508D0
:105A00007003025ACF125AF3850E82850F83125CFF
:105A10000812044F7900025AE4850882AA82EA90AB
:105A2000032B7009E02404900343F08022E0F890F7
:105A30000343E0F514E82404FCE43400FDEC6514B1
:105A40007001ED70C01258AF94121258A750B6856D
:105A50000C82850D83E0C0E074442A125767D0E0C1
:105A6000F00508850C82850D83A3E0C0E012576025
:105A7000D0E0125B0585820C85830D780C1221E441
:105A80007404121FAD1221FB8510828511831266EA
:105A9000D01207C17404121F778A0C8B0DAE0CAFA5
:105AA0000D85080C7444250CF874033400F9EE4F8E
:105AB0007003025949851882851983E08882898399
:105AC000125B05A3E0C0E0125760D0E0025957E531
:105AD00009700375090A850A82850B83125AE91237
:105AE0005E76A90974040257581266BF8512828532
:105AF000138322900343E0F5F0E50884900342F01D
:105B00007C427D0322F00508851882851983227462
:105B1000EC121FD174FE121F618A088B098C0E8D46
:105B20000FEA2405FEEB3400FF851882851983AC4B
